:020000040800F2
:10000000780B0020C1010008351100080911000813
:1000100031110008A50400089D120008000000002E
:10002000000000000000000000000000D5110008E2
:10003000A9040008000000001102000839040008AB
:10004000DB010008DB010008DB010008DB01000820
:10005000DB010008DB010008DB010008DB01000810
:10006000DB010008DB010008DB010008DB01000800
:10007000DB010008DB010008DB010008DB010008F0
:10008000DB010008DB010008DB010008DB010008E0
:10009000DB010008DB010008DB010008DB010008D0
:1000A000DB010008DB010008DB010008DB010008C0
:1000B000DB010008DB010008DB010008DB010008B0
:1000C000DB010008DB010008DB010008DB010008A0
:1000D000DB010008DB010008DB010008DB01000890
:1000E000DB010008DB010008DB010008DB01000880
:1000F000DB010008DB010008DB010008DB01000870
:10010000DB010008DB010008DB010008DB0100085F
:10011000DB010008DB010008DB010008DB0100084F
:10012000DB010008DB010008DB010008DB0100083F
:10013000DB010008DB010008DB010008DB0100082F
:10014000DB010008DB010008DB010008DB0100081F
:10015000DB010008DB010008DB010008DB0100080F
:10016000DB010008DB010008DB010008DB010008FF
:10017000DB010008DB010008DB01000800000000D3
:10018000DB010008DB010008DB010008DB010008DF
:10019000DB010008DB010008DB010008DB010008CF
:1001A000DB010008DB010008DB010008DFF80CD0F0
:1001B00000F066F900480047C71F0008780B0020D0
:1001C0000648804706480047FEE7FEE7FEE7FEE7F1
:1001D000FEE7FEE7FEE7FEE7FEE7FEE74D1200085A
:1001E000AD0100084FF00000324A1060EFF31480B8
:1001F00020F0040080F3148862B64FF080504FF076
:10020000E021C1F8040DBFF34F8FBFF36F8FFEE7FE
:1002100040F2AC00C2F2000040F2B002C2F20002B2
:100220004FF000030168A9B10360EFF3098C2CE9DA
:10023000F00F1EF0100F01D12CED108A40F20814BF
:10024000C2F200044CF804ED2568C1F808C00DB1F5
:100250008D61236072B61168C9B1016062B64F68E2
:1002600040F20814C2F200048D6907F101074F60E3
:100270002560D1F808C05CF804EB1EF0100F01D126
:1002800000F01AB8BCE8F00F8CF30988704772B61A
:100290001168016009B962B6F9E74FF000674FF0E5
:1002A000E028C8F8047D62B6D9E770477047B0EE21
:1002B000400A7047CC000020BCEC088ABCEC08CA9D
:1002C000FFF7E0BF026922F00702A2F144026FF0DB
:1002D000020313604FF0000353609360D360136117
:1002E00053619361D361136253629362D362136368
:1002F00053634FF0FF339363D1634FF08073136404
:100300008260704740F2D801C2F20001086800F133
:100310000100086040F20813C2F200031A6852B1EB
:10032000A2F101021A6032B940F2DC03C2F200030A
:100330004FF00100186040F2E801C2F200010868C5
:1003400002683AB140F2EC03C2F200034FF001023E
:100350001A600EE000F1040040F2E403C2F2000370
:100360001A68904204D140F2E003C2F20003186818
:10037000086040F2DC03C2F200031A682AB940F2B6
:10038000EC01C2F20001086868B301B540F2EC016B
:10039000C2F20001086808B101F0C4FB40F2DC03BE
:1003A000C2F200031A68E2B101F062FB40F2CC0035
:1003B000C2F200000168A1B940F2AC00C2F2000034
:1003C000016840F2B002C2F2000213684EF6045017
:1003D000CEF2000040F20002C1F20002994200D0C9
:1003E0000260BDE80140BFF34F8F704772B61548F9
:1003F000154901F1040101604FF0E0201349C0F8F4
:10040000081D13481149096801604FF0E0201149A7
:1004100041614FF0070101614FF00001C0F8181D64
:100420004FF07F41C0F81C1D0B49C0F8201D7047DC
:1004300001B5BDE80140704701B5FFF763FFBDE8B6
:100440000140704740000020780B002000000008A9
:10045000A80000207F3801000000FF40D2B201E078
:1004600000F8012B491EFBD270470022F6E710B5B9
:1004700013460A4604461946FFF7F0FF204610BD12
:10048000064C074D06E0E06840F0010394E80700E1
:1004900098471034AC42F6D3FFF78CFE802000085A
:1004A000A020000800BFFEE77047704770B5044603
:1004B00000F010F806462546681C10B10448006894
:1004C000054400BF00F006F8801BA842FAD370BDB7
:1004D000080000200148006870470000000000206C
:1004E00003480068034909680844014908607047E7
:1004F000000000200800002010B50024032000F0B8
:1005000099F8002000F008F808B1012401E000F09B
:100510002FF8204610BD000070B504460025114894
:100520000068D8B10F4800684FF47A71B1FBF0F061
:100530000D490968B1FBF0F6304600F0CBFD58B923
:10054000102C07D200222146501E00F031F8074837
:10055000046004E0012502E0012500E001252846B1
:1005600070BD0000080000200C00002004000020E6
:1005700008B500BF0D48006E40F001000B49086649
:100580000846006E00F00100009000BF00BF00BFF1
:100590000846806D40F0805088650846806D00F008
:1005A0008050009000BF00BF08BD00000010024056
:1005B0002DE9F05F80460D461646002700F070FEDC
:1005C000074639462A46334601F00700C0F1070ABC
:1005D000BAF1040F02D94FF0040A01E0C0F1070A92
:1005E000D14600F1040ABAF1070F02D24FF0000A17
:1005F00001E0A0F1030AD4464FF0010A0AFA09FA11
:10060000AAF1010A0AEA020A0AFA0CFA4FF0010BEF
:100610000BFA0CFBABF1010B0BEA030B4AEA0B04E0
:100620002146404600F044FE00F000B830BCBDE872
:10063000C09F000000BF00F00702064B19684FF68C
:10064000FF031940044B0B4343EA0221014B19609D
:1006500000BF70470CED00E00000FA050246B2F55D
:10066000007F2AD11D48006800F4C060B0F5007F0B
:1006700032D01A48006820F4C06040F40070174B74
:1006800018601748006832235843164BB0FBF3F04C
:10069000411C00E0491E1148406900F48060B0F53B
:1006A000806F01D10029F5D10C48406900F48060C9
:1006B000B0F5806F10D1032070470848006800F43F
:1006C000C060B0F5806F07D00448006820F4C060B7
:1006D00040F48060014B18600020EDE7007000409E
:1006E0000C00002040420F000248006800F4C06087
:1006F00070470000007000402DE9F04104460D46AF
:1007000014B90120BDE8F0815548006800F00700E9
:10071000A8420ED25248006820F0070028435049F2
:1007200008600846006800F00700A84201D00120D8
:10073000E8E7207800F00100002840D06068032836
:1007400006D14848006800F00070D8B90120D9E708
:100750006068022806D14348006800F4003088B978
:100760000120CFE7606830B93E48006800F0020021
:1007700040B90120C6E73B48006800F4806008B932
:100780000120BFE73748806820F003006168084314
:1007900034498860FFF79EFE064608E0FFF79AFEA0
:1007A000801B41F28831884201D90320AAE72D48F5
:1007B000806800F00C006168B0EB810FEED120780A
:1007C00000F00200022807D12648806820F0F000DF
:1007D000A1680843234988602148006800F00700A9
:1007E000A8420ED91E48006820F0070028431C4983
:1007F00008600846006800F00700A84201D0012008
:1008000080E7207800F00400042807D115488068AC
:1008100020F4E060E168084312498860207800F025
:100820000800082808D10F48806820F4605021692A
:1008300040EAC1000B49886000F01CF8094989684A
:10084000C1F30311084A515C01F01F01C840074978
:10085000086007480068FFF75FFE0746384651E723
:100860000020024000100240382000080C00002048
:1008700004000020F0B500230020DFF8D4C0DCF82D
:1008800008C00CF00C01DFF8C8C0DCF80CC00CF09C
:10089000030719B10C291ED1012F1CD1DFF8B0C0FC
:1008A000DCF800C00CF0080CBCF1000F06D1DFF83A
:1008B000A0C0DCF894C0CCF3032305E0DFF890C0BF
:1008C000DCF800C0CCF30313DFF888C05CF82330F9
:1008D00041B9184606E0042901D11F4802E0082961
:1008E00000D11E480C2932D1DFF864C0DCF80CC0FE
:1008F0000CF00304012C09D0022C02D0032C04D1EB
:1009000001E0154A04E0154A02E000BF1A4600BFA4
:1009100000BFDFF83CC0DCF80CC0CCF3021C0CF1CB
:100920000106DFF82CC0DCF80CC0CCF3062C0CFB65
:1009300002FCBCFBF6F2DFF818C0DCF80CC0CCF30C
:10094000416C0CF1010C4FEA4C05B2FBF5F0F0BD27
:1009500000100240502000080024F40000127A0029
:100960002DE9F843044614B90120BDE8F883F9489D
:10097000806800F00C06F748C06800F00307207894
:1009800000F01000102877D11EB10C2E76D1012F67
:1009900074D1F048006800F0020018B1A06908B9ED
:1009A0000120E2E7EB48216A006800F0080020B16E
:1009B000E848006800F0F00005E0E6489430006880
:1009C00000F47060000981421FD9206A00F0B4FB76
:1009D00008B10120C9E700BFDE48006840F0080008
:1009E000DC4908600846006820F0F000216A0843EE
:1009F000D849086000BF0846406820F47F40E1699C
:100A000040EA0120D34948601FE000BFD148006898
:100A100040F00800CF4908600846006820F0F00068
:100A2000216A0843CB49086000BF0846406820F4AB
:100A30007F40E16940EA0120C64948602EB9206A3A
:100A400000F07AFB08B101208FE7FFF713FFC149DF
:100A50008968C1F30311C04A515C01F01F01C8400D
:100A6000BE490860BE480068FFF756FD8046B8F1F1
:100A7000000F4ED0404678E74BE0FFE7A06980B317
:100A8000B448006840F00100B2490860FFF722FD59
:100A9000054606E0FFF71EFD401B022801D9032092
:100AA00063E7AC48006800F002000028F2D000BF05
:100AB000A848006840F00800A64908600846006899
:100AC00020F0F000216A0843A249086000BF0846F0
:100AD000406820F47F40E16940EA01209D49486078
:100AE00017E0FFE79B48006820F001009949086083
:100AF000FFF7F0FC054606E0FFF7ECFC401B022880
:100B000001D9032031E79348006800F00200002873
:100B1000F2D1207800F0010000285CD0082E03D02C
:100B20000C2E0AD1032F08D18A48006800F4003047
:100B300088B3606878BB012017E700BF6068B0F534
:100B4000803F06D18348006840F4803081490860C6
:100B50001AE06068B0F5A02F0BD17E48006840F421
:100B600080207C4908600846006840F480300860B6
:100B70000AE07848006820F480307649086008462A
:100B8000006820F48020086000BF606890B1FFF723
:100B9000A1FC054607E01EE0FFF79CFC401B642813
:100BA00001D90320E1E66B48006800F4003000281A
:100BB000F2D010E0FFF78EFC054606E0FFF78AFC56
:100BC000401B642801D90320CFE66248006800F486
:100BD00000300028F2D1207800F00200022852D123
:100BE000042E03D00C2E14D1022F12D159480068C4
:100BF00000F4806018B1E06808B90120B5E65548F6
:100C0000406820F0FE40217C40EA01605149486084
:100C100039E0E06800B34F48006840F480704D4907
:100C20000860FFF757FC054606E0FFF753FC401B42
:100C3000022801D9032098E64648006800F4806045
:100C40000028F2D04348406820F0FE40217C40EA72
:100C500001604049486016E03E48006820F480701A
:100C60003C490860FFF736FC054606E0FFF732FC1A
:100C7000401B022801D9032077E63648006800F4BB
:100C800080600028F2D1207800F00800082836D1D2
:100C90006069D0B12F489430006840F001002D49C0
:100CA000C1F89400FFF716FC054606E0FFF712FCBA
:100CB000401B022801D9032057E6264894300068DB
:100CC00000F002000028F1D019E0224894300068BA
:100CD00020F001001F49C1F89400FFF7FBFB054617
:100CE00006E0FFF7F7FB401B022801D903203CE692
:100CF00018489430006800F002000028F1D12078F4
:100D000000F00400042872D14FF000091148806DF2
:100D100000F0805078B900BF0E48806D40F08050E0
:100D20000C4988650846806D00F08050009000BF37
:100D300000BF4FF001090B48006800F4807000BB51
:100D40000848006840F4807006490860FFF7C2FB5D
:100D5000054610E000100240382000080C0000207A
:100D60000400002000700040FFF7B4FB401B022885
:100D700001D90320F9E5D348006800F48070002809
:100D8000F2D000BFA068012808D1CF48006840F029
:100D90000100CD499039C1F8900021E0A0680528F4
:100DA0000FD1C948006840F00400C7499039C1F824
:100DB00090000846D0F8900040F00100C1F8900083
:100DC0000EE0C148006820F00100BF499039C1F829
:100DD00090000846D0F8900020F00400C1F8900080
:100DE00000BFA068A0B1FFF775FB054609E02EE043
:100DF000FFF770FB401B41F28831884201D9032084
:100E0000B3E5B148006800F002000028F0D012E01D
:100E1000FFF760FB054608E0FFF75CFB401B41F273
:100E20008831884201D903209FE5A748006800F077
:100E300002000028F0D1B9F1010F07D1A248903883
:100E4000806D20F08050A0499039886500BF2078DF
:100E500000F02000202838D1606AD8B19A480830C4
:100E6000006840F0010098499039C1F89800FFF7F8
:100E700031FB054606E0FFF72DFB401B022801D998
:100E8000032072E590480830006800F00200002856
:100E9000F1D01AE08C480830006820F001008A493F
:100EA0009039C1F89800FFF715FB054606E0FFF7FB
:100EB00011FB401B022801D9032056E58248083067
:100EC000006800F002000028F1D1A06A00287DD05F
:100ED000A06A02287BD17C489038C76807F00301DC
:100EE000E06A814225D107F07001206B401EB1EB12
:100EF000001F1ED107F4FE41606BB1EB002F18D12B
:100F000007F078413820005DB1EBC06F11D107F4D4
:100F1000C001A08F0122C2EB5000B1EB405F08D1AD
:100F200007F0C0614020005DC2EB5000B1EB406FA4
:100F30006CD00C2E68D064489038006800F0806057
:100F400028B961489038006800F0805008B101204D
:100F50000BE55D489038006820F080705A49903960
:100F60000860FFF7B7FA054606E0FFF7B3FA401B43
:100F7000022801D90320F8E453489038006800F0B3
:100F800000700028F1D1D4E90B10401E41EA001195
:100F9000606B41EA0021A08F0122C2EB500041EAC0
:100FA00040514020005DC2EB500041EA40613820D2
:100FB000005D41EAC06044499039C968434A114024
:100FC000084341499039C860084601E061E043E0C8
:100FD000006840F0807008600846C06840F080708B
:100FE000C860FFF777FA054606E0FFF773FA401B83
:100FF000022801D90320B8E433489038006800F093
:1010000000700028F1D05AE00120AEE42E4890385C
:10101000006800F00070E0BB2B489038006840F09A
:1010200080702949903908600846C06840F0807097
:10103000C860FFF74FFA054606E0FFF74BFA401B82
:10104000022801D9032090E41F489038006800F07E
:1010500000700028F1D032E00C2E2ED01A489038C3
:10106000006820F0807018499039086008460068D0
:1010700000F0205020B90846C06820F00300C86086
:1010800011489038C068124908400F499039C8602B
:1010900000E014E0FFF71EFA054606E0FFF71AFA33
:1010A000401B022801D903205FE4074890380068FC
:1010B00000F000700028F1D101E0012055E400208B
:1010C00053E4000000700040901002408C809D01AD
:1010D000FFFFEEFE70B504462546681EB0F1807F26
:1010E00001D301200FE0681E4FF0E02148610F217D
:1010F0004FF0FF3000F0DCF800204FF0E021886175
:1011000007200861002070BD00BFFEE708B500BFE2
:101110000648C06C40F004000449C8640846C06C2E
:1011200000F00400009000BF00BF08BD00100240A6
:1011300000BFFEE770470000F8B5044600262348CC
:10114000806D00F0805018B1FFF7CEFA054616E02A
:1011500000BF1E48806D40F080501C4988650846DD
:10116000806D00F08050009000BF00BFFFF7BCFA18
:1011700005461648806D20F0805014498865B5F505
:10118000007F07D1802C10D9A02C01D902260CE0B9
:1011900001260AE0802C01D9032606E0802C01D12B
:1011A000022602E0702C00D101260948006820F0D8
:1011B00007003043064908600846006800F0070051
:1011C000B04201D00120F8BD0020FCE70010024031
:1011D00000200240704700B597B0442106A8FFF7F1
:1011E00044F9142101A8FFF740F9102006900120CE
:1011F0000C9000200D9060200E9002201090012194
:101200001191129128211391022114911591169197
:1012100006A8FFF7A5FB08B1FFF747F90F200190DB
:10122000032002900020039004900590042101A85F
:10123000FFF762FA08B1FFF738F94FF40070FFF7D3
:101240000DFA08B1FFF731F917B000BD104800687A
:1012500040F470000E4908600E48006840F001003C
:101260000C49086000208860084600680A49084068
:10127000084908608814C8600846006820F4802087
:10128000086000208861C803014980390860704700
:1012900088ED00E000100240FFFFF6EA00BFFEE725
:1012A00002480068C0F30220704700000CED00E027
:1012B00010B5002804DB0A07130E054A135406E094
:1012C0000A07140E034A00F00F031B1FD45410BD6D
:1012D00000E400E018ED00E002E008C8121F08C1B9
:1012E000002AFAD170477047002001E001C1121FA7
:1012F000002AFBD17047000010B500F00FF900F094
:1013000029FC00200C4908600C4908600C49086061
:101310000C4908600C4908600C4908600C490860D9
:101320000C4908600C4908600C4908600C490860C9
:101330000C49086010BD00001000002014000020BF
:10134000180000201C0000202000002024000020A5
:101350003000002034000020380000203C00002035
:10136000280000202C00002010B51048006810F163
:101370000F3F0CD04FF0F0300C490860FFF736F803
:10138000FFF7BAFF0A480068401C094908604FF09F
:10139000F030064908600748006800F029FE002088
:1013A00002490860FEF71EFF10BD0000BC000020CF
:1013B000CC000020400000202DE9FF4F83B0044600
:1013C000DDF850B0DDE9106800200290EF224146C0
:1013D0003046FFF743F8B4212046FFF746F804985B
:1013E000A062059860640698A064E660C4F8148062
:1013F0001298E0621298C4F89400C4F818B0C4F8C7
:101400001CB02020C4F89C000196A8F10100019EA8
:1014100030440190019820611398E0631398C4F858
:1014200098000320206333496165A4653249204652
:10143000FEF748FFEFF3108000F0010972B62F4865
:1014400020602F48006830B92E480460C4F88840F6
:10145000C4F88C400BE02B480768D7F88CA0C7F87D
:101460008C40CAF88840C4F88CA0C4F8887024481E
:101470000068401C2249086023480068401C22493B
:101480000860159801281CD1EFF305801F490968F1
:1014900040EA0101B1F1F03F07D31D4805682DB1C5
:1014A000E86B0290E86AE86300E00025B9F1000FFC
:1014B00000D162B6204600F00DF9B5B10298E8639C
:1014C00013E0B9F1000F00D162B6EFF3108000F025
:1014D000010972B60C480068401E0B490860B9F15A
:1014E000000F00D162B600F0E1F8002007B000F074
:1014F00011B80000DD1A00088D1500084452485448
:10150000B8000020B4000020CC000020BC00002067
:10151000B000002030BCBDE8C08F000010B5002036
:101520000F4908600F4908600F48002101600F480B
:10153000016020200E49086080210E48FEF795FFCB
:1015400000200D4908600D4908600D4908600D49EB
:1015500008600D48006840F080700B49086010BDBD
:10156000AC000020B0000020C0000020C40000201B
:10157000C8000020C0010020B4000020B8000020F6
:10158000CC000020D0000020D400002070B51D4801
:101590000468EFF3108000F0010672B6D4F8AC5086
:1015A00006B962B615B100212046A847D4E911104A
:1015B00088471548006818B12046134909688847CC
:1015C000EFF3108000F0010672B6D4F8AC500120A1
:1015D0002063A0630020E0640C480068401C0B49B5
:1015E000086006B962B6EFF31481084620F00400E3
:1015F00080F3148815B101212046A847204600F049
:1016000045F970BDAC000020D0000020CC000020C7
:101610002DE9F0410746EFF3108000F0010672B6A5
:101620001E480468002C03D106B962B6132531E0C8
:10163000EFF305801A49096840EA010119B106B9BA
:1016400062B6132526E01748844203D106B962B674
:1016500013251FE01FB906B962B600251AE012482B
:10166000006818B106B962B6132513E004202063A0
:101670000120A0630020C4F88400E7640A480068E1
:10168000401C0949086006B962B6204600F0FEF821
:10169000D4F884502846BDE8F0810000AC0000205A
:1016A000BC000020C0020020CC00002070B506481D
:1016B00006683EB90548046805480568AC4201D093
:1016C00000F0AEF870BD0000CC000020AC0000209F
:1016D000B00000202DE9F84F0446EFF3108000F031
:1016E000010B72B6606E20B104F14C0000F0D6FA26
:1016F00001E00020E06441480068401E3F49086066
:10170000A06B002854D1206B002861D0606B0028AA
:1017100049D12063E56A3A4850F82570CFBB40F8BC
:10172000254024626462012000FA05F9354800680A
:1017300040EA09003349086033480068854247D2CF
:1017400031480560314806680EB9046040E0F06B2E
:10175000A8423DD9F16AF06B88420AD096F82C1065
:10176000012000FA01F92A48006840EA09002849E6
:10177000086026480460BBF1000F00D162B61F4824
:10178000D0F80080B8F1000F01D100F05BF800F054
:1017900043B8FFE7D7F824A0CAF820407C62C4F819
:1017A00024A0276214E000206063032020630FE080
:1017B000206B01280CD0206B022809D0606B18B96F
:1017C0000020A063206303E0002060630320206307
:1017D000104800680090BBF1000F00D162B60B49C1
:1017E00000980968884207D00448D0F80080B8F112
:1017F000000F01D100F026F800BFC8E7CC000020A0
:10180000C0010020C0000020C8000020B00000205F
:10181000C4000020AC00002018BCBDE8E08F000030
:101820004FF08051064A1160EFF3058139B9EFF3AB
:10183000108101F0010072B662B600B172B6704755
:1018400004ED00E04FF08051064A1160EFF305818E
:1018500039B9EFF3108101F0010072B662B600B140
:1018600072B6704704ED00E04FF08051064A1160F7
:10187000EFF3058139B9EFF3108101F0010072B681
:1018800062B600B172B6704704ED00E02DE9FE4F7C
:1018900004466D4800680190EFF3108000F00109E4
:1018A00072B6019884420DD1E06C0090009830B17E
:1018B0000098401C18B104F14C0000F0BFF96349D6
:1018C000E069086062480068401E61490860A06BDA
:1018D00001287DD10020A063E56AD4F82080A045CE
:1018E0001CD0606A02900298C8F824000298C0F8E0
:1018F0002080584850F82500A04247D1554840F86C
:10190000258055480068002840D0012000FA05F6DF
:1019100051480068B0435049086037E000204D4905
:1019200041F82500012000FA05F64C480068B04354
:101930004A4908604848006838B1012000FA05F6B5
:1019400045480068B043444908604FF0000B4348E5
:10195000D0F800A0BAF1000F10D120204049086053
:10196000002040490860B9F1000F00D162B6384844
:1019700007680FB9FFF778FF00F076B89AFAAAF077
:10198000B0FA80F60BEB0600354908603548006870
:10199000844248D12F483249096850F82100314922
:1019A00008602D480068A0B329480068401C2849F9
:1019B0000860B9F1000F00D162B6EFF3108000F0BB
:1019C000010972B622480068401E2149086000E003
:1019D00029E04FF0000B2048D0F800A09AFAAAF0B6
:1019E000B0FA80F60BEB06051A4850F82500C06BDC
:1019F0001B49096888420CD8164850F82500194937
:101A00000860012000FA05F613480068B043124947
:101A10000860B9F1000F00D162B60D4807680FB930
:101A2000FFF722FFA8E7B9F1000F00D162B60D4918
:101A300001980968884204D0054807680FB9FFF784
:101A400013FF00BF98E70000AC0000200801002051
:101A5000CC000020C0010020C4000020C0000020F5
:101A6000C8000020B00000201EBCBDE8E08F0000D0
:101A700010B5144A1068EFF3108202F0010172B63B
:101A80000022114B1A60C8B1026BBAB9C2698261F7
:101A90000E4B82691A60026A82420FD0C36BC26A1F
:101AA0009A420BD10A4CC36A026A44F823202246A8
:101AB000084B1B6852F82320074B1A6001B962B625
:101AC00010BD0000AC000020DC0000200801002058
:101AD000C0010020C8000020B00000202DE9F04126
:101AE00005462C46EFF3108000F0010772B6206B1C
:101AF00004280AD10A480068401C0949086007B94F
:101B000062B62046FFF7E6FD08E0A66ED4F8B08086
:101B100007B962B616B141462046B047BDE8F0812C
:101B2000CC00002010B5FEF7DBFCEFF3108000F0D6
:101B3000010472B605480068401C0449086004B9F5
:101B400062B60348FFF7C6FD10BD0000CC000020C0
:101B5000C002002010B586B000202149086021494C
:101B600008602149086021490860214908608021F6
:101B70002048FEF77AFC1F481F4908601F4908608B
:101B80007C301F49086008460068001D08601D4839
:101B90001D4908604FF480601C49086000201C4902
:101BA000086000BF00201A4A1268194B1B68CDE973
:101BB0000320029305901548006813490968154BE6
:101BC000154ACDE9001015A11948FFF7F5FB0446A9
:101BD000002CE7D1174908601749086006B010BD0E
:101BE000D800002008010020DC000020EC000020CC
:101BF000F800002040020020E0000020E800002063
:101C0000E400002074030020FC00002000010020FC
:101C1000040100204D495441CD1C000853797374D0
:101C2000656D2054696D6572205468726561640049
:101C3000C0020020F0000020F4000020F0B503688E
:101C40002BB35F1C1FB387690FBB202B01D91F2546
:101C500000E05D1E0E4F3F6807EB85010D4F3F68AA
:101C6000B94207D30B4F3F68CF1BBE100A4F3F68E6
:101C700007EB86010F681FB900614061086005E04D
:101C80000A68546920615061026144618161F0BD5C
:101C9000E8000020E4000020E000002010B5816989
:101CA00091B10269904205D10C6884420AD10024A6
:101CB0000C6007E0436953611A610C68844201D1EA
:101CC00091610A600024846110BD00002DE9FC5F71
:101CD00081464FF0000B4D4881457DD193E0EFF3F5
:101CE000108000F0010672B6494800680068019053
:101CF000019810B101A80199886100204449096840
:101D0000086043480068001D4149086008460068B3
:101D100040490968884203D13F4800683C4908604F
:101D200000203E49086006B962B6EFF3108000F06B
:101D3000010672B64DE0019C0198056900200090F3
:101D4000AC4201D1019008E0D4F81480C5F81480A9
:101D5000C8F8105001A8A86101952068202809D969
:101D60002068203820604FF0000AC4F818D02461A1
:101D700000940EE0D4F808A0D4F80CB0606820609D
:101D8000206820B1C4F818D02461009401E000203C
:101D9000A0612348046006B962B6BAF1000F01D011
:101DA0005846D047EFF3108000F0010672B60020CD
:101DB0001B4908600098A04204D10020A061204681
:101DC000FFF73CFF06B962B6EFF3108000F00106A2
:101DD00072B60198002800E016E0ACD10F48006808
:101DE00078B9104F032038630120B8630E480068AB
:101DF000401C0D49086006B962B63846FFF746FD3B
:101E000001E006B962B66AE700F010B84D495441E6
:101E1000E8000020E4000020E0000020EC000020AA
:101E2000F8000020C0020020CC0000203CBCBDE82F
:101E3000C09F00002DE9FF4F8BB00646DDE91989F0
:101E4000189D00200A9016B90E200A9097E01E985F
:101E5000B42802D00E200A9091E0EFF3108000F039
:101E6000010A72B650480068401C4F490860BAF138
:101E7000000F00D162B6002009904C480468089514
:101E8000A8F10100089D47190897089F4FF0000B23
:101E90001DE0A64201D1012009900998012800D136
:101EA00019E0E068A84205D82069A84202D90025B7
:101EB00001200990E068B84205D82069B84202D9EB
:101EC000002501200990D4F888400BF1010B384817
:101ED00000688345DDD300BFEFF3108000F0010AF6
:101EE00072B631480068401E2F490860BAF1000FF1
:101EF00000D162B6FFF7DAFBA64202D10E200A90AB
:101F00003DE015B903200A9039E00D9810B903207F
:101F10000A9034E0B8F1C80F02D205200A902EE0F2
:101F2000B9F1200F02D30F200A9028E01B984845F2
:101F300002D918200A9022E01D98012802D9102009
:101F40000A901CE01B48006807901B4907988842CC
:101F500002D14FF013000A90EFF30580174909688A
:101F600040EA010100290AD0EFF30580134909680E
:101F700040EA0101B1F1F03F01D213200A900A9822
:101F800068B9DDE91B211D988DE82003CDE9032107
:101F9000059030460CA90EC9FFF70EFA0A900A9870
:101FA0000FB000F00DB80000CC000020B4000020FD
:101FB000B8000020AC000020C0020020BC000020BF
:101FC00030BCBDE8C08F10B5FEF796FAFFF703F9F5
:101FD000FFF79CF84FF47A70FEF768FAFFF7C4F940
:101FE000002010BD03E04FF47A70FFF711FBFAE711
:101FF00010B588B00446B420012100220323CDE9A6
:102000000332CDE905108902CDE90041029340F683
:102010001D13034A03A10748FFF70CFF08B010BDCA
:10202000E51F0008746872656164315F656E7472E3
:10203000790000000C0100200000000000000000FA
:10204000010203040607080900000000010203045E
:10205000A0860100400D0300801A060000350C0028
:1020600040420F0080841E0000093D0000127A00EB
:102070000024F40000366E010048E801006CDC0228
:10208000A0200008000000200C010000D812000869
:10209000AC2100080C0100206C0A0000E8120008C6
:1020A00000000000100000000100000000093D00D9
:1020B0000000000000000000000000000000000020
:1020C0000000000000000000000000000000000010
:1020D0000000000000000000000000000000000000
:1020E00000000000436F707972696768742028638C
:1020F00029204D6963726F736F667420436F72702D
:102100006F726174696F6E2E20416C6C207269670A
:102110006874732072657365727665642E20202A58
:1021200020205468726561645820436F727465782A
:102130002D4D342F4B65696C2056657273696F6E37
:1021400020362E30202A0000000000000000000091
:10215000000000000000000000000000F0F0F0F0BF
:10216000000000000000000000000000000000006F
:10217000000000000000000000000000000000005F
:10218000000000000000000000000000000000004F
:10219000000000000000000000000000000000003F
:0C21A00000000000000000000000000033
:04000005080001AD41
:00000001FF
